S01600004C454420435542452038783878382E7372656342
S11300000C9426130C9443130C9443130C94431331
S11300100C9443130C9443130C9443130C94021543
S11300200C9443130C9443130C9443130C944313F4
S11300300C94C9140C9442150C9464150C945A1520
S11300400C9443130C9443130C9443130C944313D4
S11300500C944313000000000000000001000000A5
S11300600000000000020000000000000000040086
S11300700000000000000008000000000000000074
S1130080100000000000000000200000000000003C
S1130090000040000000181800000080000000006C
S11300A00000000001000000000000000002000049
S11300B00000000000000400000000000000000830
S11300C0000000000000000010000000000000001C
S11300D0002000000018180000004000003C242408
S11300E03C0000800000000000000000010000004F
S11300F000000000000200000000000000000400F6
S113010000000000000000080000000000000000E3
S11301101000000018180000002000003C24243CBB
S1130120000040007E424242427E00800000000007
S113013000000000010000000000000000020000B8
S1130140000000000000040000000000000000089F
S113015000000018180000001000003C24243C009B
S11301600020007E424242427E0040FF8181818124
S11301708181FF80000000000000000001000000F9
S11301800000000000020000000000000000040065
S1130190000018180000000800003C24243C000063
S11301A010007E424242427E0020FF818181818193
S11301B081FF4000000000000000008000000000FB
S11301C00000000001000000000000000002000028
S11301D00018180000000400003C24243C0000081F
S11301E0007E424242427E0010FF818181818181F2
S11301F0FF2000000000000000004000000000009C
S11302000000008000000000000000000100000069
S113021018180000000200003C24243C00000400E4
S11302207E424242427E0008FF818181818181FFBA
S1130230100000000000000000200000000000008A
S113024000004000000000000000008000000018D2
S1130250180000000100003C24243C000002007E41
S1130260424242427E0004FF818181818181FF08F4
S1130270000000000000000010000000000000006A
S1130280002000000000000000004000000000000A
S11302900000008000000000000000000100003C9D
S11302A03C3C3C000002007E424242427E0004FF8D
S11302B0818181818181FF0800000000000000002D
S11302C010000000000000000020000000000000FA
S11302D0000040000000000000000080000000005A
S11302E0000000000100003C24243C000002007EC9
S11302F0425A5A427E0004FF818181818181FF0834
S113030000000000000000001000000000000000D9
S11303100020000000000000000040000000000079
S11303200000008000000000000000000100000048
S1130330000000000002007E7E66667E7E0004FFF0
S1130340818199998181FF0800000000000000006C
S11303501000000000000000002000000000000069
S113036000004000000000000000008000000000C9
S11303700000000001000000000000000002007EF8
S1130380424242427E0004FF81BDA5A5BD81FF0813
S11303900000001818000000100000000000000019
S11303A000200000000000000000400000000000E9
S11303B000000080000000000000000001000000B8
S11303C0000000000002000000000000000004FF24
S11303D0FFC3C3C3C3FFFF0800003C24243C000048
S11303E010000000181800000020000000000000A9
S11303F00000400000000000000000800000000039
S113040000000000010000000000000000020000E5
S113041000000000000004FF818181818181FF08C8
S1130420007E424242427E001000003C24243C00F4
S11304300020000000181800000040000000000028
S11304400000008000000000000000000100000027
S11304500000000000020000000000000000040092
S11304600000000000000008FF818181818181FF7C
S113047010007E424242427E002000003C24243C84
S11304800000400000001818000000800000000078
S11304900000000001000000000000000002000055
S11304A0000000000000040000000000000000083C
S11304B0FF818181818181FF10007E424242427E20
S11304C0002000003C24243C0000400000001818D8
S11304D00000008000000000000000000100000097
S11304E00000000000020000000000000000040002
S11304F00000000000000008FF818181818181FFEC
S113050010007E424242427E002000003C3C3C3CC3
S11305100000400000000000000000800000000017
S113052000000000010000000000000000020000C4
S113053000000000000004000000000000000008AB
S1130540FF818181818181FF10007E425A5A427E5F
S1130550002000003C24243C000040000000000077
S11305600000008000000000000000000100000006
S11305700000000000020000000000000000040071
S11305800000000000000008FF818199998181FF2B
S113059010007E7E66667E7E002000000000000063
S11305A00000400000000000000000800000000087
S11305B00000000001000000000000000002000034
S11305C000000000000004000000181800000008EB
S11305D0FF81BDA5A5BD81FF10007E424242427E3F
S11305E000200000000000000000400000000000A7
S11305F00000008000000000000000000100000076
S113060000000000000200000018180000000400B0
S1130610003C24243C000008FFFFC3C3C3C3FFFF06
S11306201000000000000000002000000000000096
S113063000004000000000000000008000000000F6
S11306400000000001000000181800000002000073
S11306503C24243C000004007E424242427E0008C6
S1130660FF818181818181FF100000000000000072
S11306700020000000000000000040000000000016
S11306800000008000000018180000000100003C79
S113069024243C000002007E424242427E0004FFC9
S11306A0818181818181FF08000000000000000039
S11306B01000000000000000002000000000000006
S11306C0000040000000000000000080000000184E
S11306D0180000000100003C24243C000002007EBD
S11306E0424242427E0004FF818181818181FF0870
S11306F000000000000000001000000000000000E6
S11307000020000000000000000040000000000085
S11307100000008000000000000000000100003C18
S11307203C3C3C000002007E424242427E0004FF08
S1130730818181818181FF080000000000000000A8
S11307401000000000000000002000000000000075
S113075000004000000000000000008000000000D5
S1130760000000000100003C24243C000002007E44
S1130770425A5A427E0004FF818181818181FF08AF
S11307800000000000000000100000000000000055
S113079000200000000000000000400000000000F5
S11307A000000080000000000000000001000000C4
S11307B0000000000002007E7E66667E7E0004FF6C
S11307C0818199998181FF080000000000000000E8
S11307D010000000000000000020000000000000E5
S11307E00000400000000000000000800000000045
S11307F00000000001000000000000000002007E74
S1130800424242427E0004FF81BDA5A5BD81FF088E
S11308100000001818000000100000000000000094
S11308200020000000000000000040000000000064
S11308300000008000000000000000000100000033
S1130840000000000002000000000000000004FF9F
S1130850FFC3C3C3C3FFFF0800003C24243C0000C3
S11308601000000018180000002000000000000024
S113087000004000000000000000008000000000B4
S11308800000000001000000000000000002000061
S113089000000000000004FF818181818181FF0844
S11308A0007E424242427E001000003C24243C0070
S11308B000200000001818000000400000000000A4
S11308C000000080000000000000000001000000A3
S11308D0000000000002000000000000000004000E
S11308E00000000000000008FF818181818181FFF8
S11308F010007E424242427E002000003C24243C00
S113090000004000000018180000008000000000F3
S113091000000000010000000000000000020000D0
S113092000000000000004000000000000000008B7
S1130930FF818181818181FF10007E424242427E9B
S1130940002000003C24243C000040000000181853
S11309500000008000000000000000000100000012
S1130960000000000002000000000000000004007D
S11309700000000000000008FF818181818181FF67
S113098010007E424242427E002000003C3C3C3C3F
S11309900000400000000000000000800000000093
S11309A00000000001000000000000000002000040
S11309B00000000000000400000000000000000827
S11309C0FF818181818181FF10007E425A5A427EDB
S11309D0002000003C24243C0000400000000000F3
S11309E00000008000000000000000000100000082
S11309F000000000000200000000000000000400ED
S1130A000000000000000008FF818199998181FFA6
S1130A1010007E7E66667E7E0020000000000000DE
S1130A200000400000000000000000800000000002
S1130A3000000000010000000000000000020000AF
S1130A400000000000000400000018180000000866
S1130A50FF81BDA5A5BD81FF10007E424242427EBA
S1130A600020000000000000000040000000000022
S1130A7000000080000000000000000001000000F1
S1130A80000000000002000000181800000004002C
S1130A90003C24243C000008FFFFC3C3C3C3FFFF82
S1130AA01000000000000000002000000000000012
S1130AB00000400000000000000000800000000072
S1130AC000000000010000001818000000020000EF
S1130AD03C24243C000004007E424242427E000842
S1130AE0FF818181818181FF1000000000000000EE
S1130AF00020000000000000000040000000000092
S1130B000000008000000018180000000100003CF4
S1130B1024243C000002007E424242427E0004FF44
S1130B20818181818181FF080000000000000000B4
S1130B301000000000000000002000000000000081
S1130B4000004000000000000000008000000018C9
S1130B50180000000100003C24243C000002007E38
S1130B60424242427E0004FF818181818181FF08EB
S1130B700000000000000000100000000000000061
S1130B800020000000000000000040000000000001
S1130B900000008000000000000000000100003C94
S1130BA03C3C3C000002007E424242427E0004FF84
S1130BB0818181818181FF08000000000000000024
S1130BC010000000000000000020000000000000F1
S1130BD00000400000000000000000800000000051
S1130BE0000000000100003C24243C000002007EC0
S1130BF0425A5A427E0004FF818181818181FF082B
S1130C0000000000000000001000000000000000D0
S1130C100020000000000000000040000000000070
S1130C20000000800000000000000000010000003F
S1130C30000000000002007E7E66667E7E0004FFE7
S1130C40818199998181FF08000000000000000063
S1130C501000000000000000002000000000000060
S1130C6000004000000000000000008000000000C0
S1130C700000000001000000000000000002007EEF
S1130C80424242427E0004FF81BDA5A5BD81FF080A
S1130C900000001818000000100000000000000010
S1130CA000200000000000000000400000000000E0
S1130CB000000080000000000000000001000000AF
S1130CC0000000000002000000000000000004FF1B
S1130CD0FFC3C3C3C3FFFF0800003C24243C00003F
S1130CE010000000181800000020000000000000A0
S1130CF00000400000000000000000800000000030
S1130D0000000000010000000000000000020000DC
S1130D1000000000000004FF818181818181FF08BF
S1130D20007E424242427E001000003C24243C00EB
S1130D30002000000018180000004000000000001F
S1130D40000000800000000000000000010000001E
S1130D500000000000020000000000000000040089
S1130D600000000000000008FF818181818181FF73
S1130D7010007E424242427E002000003C24243C7B
S1130D80000040000000181800000080000000006F
S1130D90000000000100000000000000000200004C
S1130DA00000000000000400000000000000000833
S1130DB0000000000000000010FF8181818181811A
S1130DC0FF20007E424242427E004000003C242438
S1130DD03C00008000000000000000000100000052
S1130DE000000000000200000000000000000400F9
S1130DF000000000000000080000000000000000E7
S1130E0010000000000000000020FF81818181812A
S1130E1081FF40007E424242427E0080000000008A
S1130E2000000000010000000000000000020000BB
S1130E3000000000000004000000000000000008A2
S1130E40000000000000000010000000000000008E
S1130E500020000000000000000040FF818181812B
S1130E608181FF80000000000000000001000000FC
S1130E700000000000020000000000000000040068
S1130E800000000000000008000000000000000056
S1130E90100000000000000000200000000000001E
S1130EA0000040000000000000000080FF0000007F
S1130EB0000000000100000000000000000200002B
S1130EC00000000000000400000000000000000812
S1130ED000000000000000001000000000000000FE
S1130EE0002000000000000000004000000000009E
S1130EF00000008000FF00000000000001FF00006F
S1130F0000000000000200000000000000000400D7
S1130F1000000000000000080000000000000000C5
S1130F20100000000000000000200000000000008D
S1130F300000400000000000000000800000FF00EE
S1130F40000000000100FF00000000000002FF009C
S1130F500000000000000400000000000000000881
S1130F60000000000000000010000000000000006D
S1130F70002000000000000000004000000000000D
S1130F8000000080000000FF00000000010000FFDE
S1130F9000000000000200FF00000000000004FF49
S1130FA00000000000000008000000000000000035
S1130FB010000000000000000020000000000000FD
S1130FC0000040000000000000000080000000005D
S1130FD0FF00000001000000FF000000000200000C
S1130FE0FF00000000000400FF00000000000008F3
S1130FF0FF000000000000001000000000000000DE
S1131000002000000000000000004000000000007C
S1131010000000800000000000FF0000010000004C
S113102000FF00000002000000FF000000000400B8
S113103000FF00000000000800FF000000000000A6
S113104010FF00000000000000200000000000006D
S113105000004000000000000000008000000000CC
S11310600000FF00010000000000FF00000200007B
S11310700000FF00000004000000FF000000000862
S11310800000FF00000000001000FF00000000004E
S11310900020FF00000000000000400000000000ED
S11310A00000008000000000000000FF01000000BC
S11310B0000000FF00020000000000FF0000040028
S11310C0000000FF00000008000000FF0000000016
S11310D0100000FF00000000002000FF00000000DE
S11310E0000040FF0000000000000080000000003D
S11310F00000000001000000000000FFFF020000EB
S1131100000000FF00000400000000FF00000008D1
S1131110000000FF00000000100000FF00000000BD
S11311200020FFFF0000000000004000000000005D
S1131130000000800000000000000000010000002A
S1131140000000FF00020000000000FF00FF040098
S1131150000000FF00000008000000FF0000000085
S113116010FF00FF00000000002000FF000000004E
S113117000004000000000000000008000000000AB
S11311800000000001000000000000000002000058
S1131190000000FFFF000400000000FF0000FF0843
S11311A0FF0000FF000000001000FFFF000000002F
S11311B000200000000000000000400000000000CB
S11311C0000000800000000000000000010000009A
S11311D00000000000020000000000FF000004FF07
S11311E0000000FF00FF000800FF00FF000000FFF8
S11311F0100000FF000000000020000000000000BC
S1131200000040000000000000000080000000001A
S11312100000000001000000000000000002FF00C8
S11312200000000000000400FF0000FFFF000008B1
S11312300000FFFF0000FF0010000000000000009D
S1131240FF2000000000000000004000000000003B
S113125000000080000000000000000001FF00000A
S113126000000000000200FF000000000000040075
S113127000FF00FF00000008000000FF00FF000066
S113128010000000000000FF00200000000000002B
S113129000FF40000000000000000080FF0000008C
S11312A0000000000100FF00000000000002000038
S11312B0FF000000000004000000FF000000000820
S11312C000000000FF000000100000000000FF000C
S11312D0FF20000000000000FF00400000000000AC
S11312E000000080000000000000000001FF00007A
S11312F000000000000200FF0000000000000400E5
S113130000FF000000000008000000FF000000FFD4
S11313101000000000FF00FF00200000000000FF9C
S113132000004000000000000000008000000000F9
S11313300000000001000000000000000002FF00A7
S11313400000000000000400FF0000000000FF088F
S11313500000FF000000FF0010000000FF00FF007D
S1131360002000000000FF0000004000000000001A
S113137000000080000000000000000001000000E8
S113138000000000000200000000000000FF04FF55
S11313900000000000FF000800FF000000FF000044
S11313A0100000FF00FF00000020000000FF00000C
S11313B00000400000000000000000800000000069
S11313C0000000000100000000000000FF02000017
S11313D000000000FF00040000000000FF000008FF
S11313E0FF000000FF0000001000FF00FF000000ED
S11313F000200000FF00000000004000000000008A
S11314000000008000000000000000FF0100000058
S1131410000000FF00020000000000FF00000400C4
S1131420000000FF00000008000000FF00000000B2
S113143010FF00FF00000000002000FF000000007B
S113144000004000000000000000008000000000D8
S1131450000000FF01000000000000FF0002000087
S1131460000000FF00000400000000FF000000086E
S1131470000000FF00000000100000FF000000005A
S1131480002000FF00000000000040FF00000000FA
S113149000000080000000000000000001000000C7
S11314A0000000FFFF020000000000FF0000040035
S11314B0000000FF00000008000000FF0000000022
S11314C0100000FF000000000020FFFF00000000EB
S11314D00000400000000000000000800000000048
S11314E00000000001000000000000FF00020000F6
S11314F0000000FF00FF0400000000FF00000008DF
S1131500000000FF0000000010FF00FF00000000CA
S1131510002000FF00000000000040000000000068
S11315200000008000000000000000000100000036
S11315300000000000020000000000FFFF000400A3
S1131540000000FF0000FF08FF0000FF0000000093
S11315501000FFFF00000000002000000000000059
S113156000004000000000000000008000000000B7
S11315700000000001000000000000000002000064
S1131580000000FF000004FF000000FF00FF00084F
S113159000FF00FF000000FF100000FF000000003B
S11315A000200000000000000000400000000000D7
S11315B000000080000000000000000001000000A6
S11315C0000000000002FF00000000000000040012
S11315D0FF0000FFFF0000080000FFFF0000FF0005
S11315E01000000000000000FF20000000000000C8
S11315F00000400000000000000000800000000027
S11316000000000001FF000000000000000200FFD5
S1131610000000000000040000FF00FF00000008BC
S1131620000000FF00FF000010000000000000FFA9
S1131630002000000000000000FF40000000000047
S113164000000080FF000000000000000100FF0017
S11316500000000000020000FF0000000000040081
S11316600000FF000000000800000000FF00000070
S1131670100000000000FF00FF2000000000000038
S1131680FF00400000000000000000800000000097
S11316900000000001FF000000000000000200FF45
S11316A0000000000000040000FF0000000000082B
S11316B0000000FF000000FF1000000000FF00FF1A
S11316C000200000000000FF0000400000000000B7
S11316D00000008000000000000000000100000085
S11316E0000000000002FF000000000000000400F1
S11316F0FF0000000000FF080000FF000000FF00E2
S113170010000000FF00FF00002000000000FF00A8
S11317100000400000000000000000800000000005
S113172000000000010000000000000000020000B2
S11317300000000000FF04FF0000000000FF00089C
S113174000FF000000FF0000100000FF00FF000089
S11317500020000000FF0000000040000000000026
S113176000000080000000000000000001000000F4
S113177000000000FF02000000000000FF00040061
S113178000000000FF000008FF000000FF00000050
S11317901000FF00FF00000000200000FF00000018
S11317A00000400000000000000000800000000075
S11317B0000000FF01000000000000FF0002000024
S11317C0000000FF00000400000000FF000000080B
S11317D0000000FF0000000010FF00FF00000000F8
S11317E0002000FF00000000000040000000000096
S11317F00000008000000000000000FF0100000065
S1131800000000FF00020000000000FF00000400D0
S1131810000000FF00000008000000FF00000000BE
S1131820100000FF00000000002000FF0000000086
S1131830000040FF000000000000008000000000E5
S11318400000000001000000000000FFFF02000093
S1131850000000FF00000400000000FF000000087A
S1131860000000FF00000000100000FF0000000066
S11318700020FFFF00000000000040000000000006
S113188000000080000000000000000001000000D3
S1131890000000FF00020000000000FF00FF040041
S11318A0000000FF00000008000000FF000000002E
S11318B010FF00FF00000000002000FF00000000F7
S11318C00000400000000000000000800000000054
S11318D00000000001000000000000000002000001
S11318E0000000FFFF000400000000FF0000FF08EC
S11318F0FF0000FF000000001000FFFF00000000D8
S11319000020000000000000000040000000000073
S11319100000008000000000000000000100000042
S11319200000000000020000000000FF000004FFAF
S1131930000000FF00FF000800FF00FF000000FFA0
S1131940100000FF00000000002000000000000064
S113195000004000000000000000008000000000C3
S11319600000000001000000000000000002FF0071
S11319700000000000000400FF0000FFFF0000085A
S11319800000FFFF0000FF00100000000000000046
S1131990FF200000000000000000400000000000E4
S11319A000000080000000000000000001FF0000B3
S11319B000000000000200FF00000000000004001E
S11319C000FF00FF00000008000000FF00FF00000F
S11319D010000000000000FF0020000000000000D4
S11319E000FF40000000000000000080FF00000035
S11319F0000000000100FF000000000000020000E1
S1131A00FF000000000004000000FF0000000008C8
S1131A1000000000FF000000100000000000FF00B4
S1131A20FF20000000000000FF0040000000000054
S1131A3000000080000000000000000001FF000022
S1131A4000000000000200FF00000000000004008D
S1131A5000FF000000000008000000FF000000FF7D
S1131A601000000000FF00FF00200000000000FF45
S1131A7000004000000000000000008000000000A2
S1131A800000000001000000000000000002FF0050
S1131A900000000000000400FF0000000000FF0838
S1131AA00000FF000000FF0010000000FF00FF0026
S1131AB0002000000000FF000000400000000000C3
S1131AC00000008000000000000000000100000091
S1131AD000000000000200000000000000FF04FFFE
S1131AE00000000000FF000800FF000000FF0000ED
S1131AF0100000FF00FF00000020000000FF0000B5
S1131B000000400000000000000000800000000011
S1131B10000000000100000000000000FF020000BF
S1131B2000000000FF00040000000000FF000008A7
S1131B30FF000000FF0000001000FF00FF00000095
S1131B4000200000FF000000000040000000000032
S1131B500000008000000000000000FF0100000001
S1131B60000000FF00020000000000FF000004006D
S1131B70000000FF00000008000000FF000000005B
S1131B8010FF00FF00000000002000FF0000000024
S1131B900000400000000000000000800000000081
S1131BA0000000FF01000000000000FF0002000030
S1131BB0000000FF00000400000000FF0000000817
S1131BC0000000FF00000000100000FF0000000003
S1131BD0002000FF00000000000040FF00000000A3
S1131BE00000008000000000000000000100000070
S1131BF000000000FF02000000000000FF000400DD
S1131C0000000000FF00000800000000FF000000CA
S1131C1010000000FF00000000200000FF00000092
S1131C2000004000FF0000000000008000000000F1
S1131C30000000000100000000000000000200009D
S1131C400000000000FF04000000000000FF000886
S1131C500000000000FF00001000000000FF000072
S1131C600020000000FF00000000400000FF000012
S1131C7000000080000000000000000001000000DF
S1131C80000000000002000000000000000004004A
S1131C90000000000000FF08000000000000FF003A
S1131CA0100000000000FF00002000000000FF0002
S1131CB0000040000000FF00000000800000000061
S1131CC0000000000100000000000000000200000D
S1131CD000000000000004000000000000000008F4
S1131CE000000000000000FF10000000000000FFE2
S1131CF000200000000000FF00004000000000FF82
S1131D00000000800000000000000000010000004E
S1131D1000000000000200000000000000000400B9
S1131D2000000000000000080000000000000000A7
S1131D301000000000000000FF2000000000000070
S1131D40FF00400000000000FF00008000000000D1
S1131D50000000000100000000000000000200007C
S1131D600000000000000400000000000000000863
S1131D70000000000000000010000000000000004F
S1131D80002000000000000000FF400000000000F0
S1131D9000FF0080000000000000000001000000BF
S1131DA00000000000020000000000000000040029
S1131DB00000000000000008000000000000000017
S1131DC010000000000000000020000000000000DF
S1131DD000004000000000000000FF800000000040
S1131DE000000000010000000000000000020000EC
S1131DF000000000000004000000000000000008D3
S1131E0000000000000000001000000000000000BE
S1131E10002000000000000000004000000000005E
S1131E20000000800000000000000000010000002D
S1131E300000000000020000000000000000040098
S1131E400000000000000008000000000000000086
S1131E50100000000000000000200000000000004E
S1131E6000004000000000000000FF8000000000AF
S1131E70000000000100000000000000000200005B
S1131E800000000000000400000000000000000842
S1131E90000000000000000010000000000000002E
S1131EA0002000000000000000FF400000000000CF
S1131EB00000FF800000000000000000010000009E
S1131EC00000000000020000000000000000040008
S1131ED000000000000000080000000000000000F6
S1131EE01000000000000000FF20000000000000BF
S1131EF000FF4000000000000000FF800000000020
S1131F0000000000010000000000000000020000CA
S1131F1000000000000004000000000000000008B1
S1131F2000000000000000FF10000000000000009E
S1131F30FF2000000000000000FF4000000000003F
S1131F400000FF800000000000000000010000000D
S1131F500000000000020000000000000000040077
S1131F60000000000000FF0800000000000000FF67
S1131F701000000000000000FF200000000000002E
S1131F8000FF4000000000000000FF80000000008F
S1131F90000000000100000000000000000200003A
S1131FA00000000000FF0400000000000000FF0823
S1131FB000000000000000FF10000000000000000E
S1131FC0FF2000000000000000FF400000000000AF
S1131FD00000FF800000000000000000010000007D
S1131FE0000000000002000000000000FFFF0400E9
S1131FF0000000000000FF0800000000000000FFD7
S11320001000000000000000FF200000000000009D
S113201000FF4000000000000000FF8000000000FE
S113202000000000010000000000000000020000A9
S113203000000000FFFF040000000000FF00FF0894
S113204000000000000000FF10000000000000007D
S1132050FF2000000000000000FF4000000000001E
S11320600000FF80000000000000000001000000EC
S1132070000000000002000000000000FFFF040058
S113208000000000FF00FF0800000000FF0000FF48
S11320901000000000000000FF200000000000000D
S11320A000FF4000000000000000FF80000000006E
S11320B00000000001000000000000000002000019
S11320C000000000FFFF040000000000FF00FF0804
S11320D000000000FF0000FF10000000FF000000EF
S11320E0FF2000000000000000FF4000000000008E
S11320F0000000800000000000000000010000005B
S1132100000000000002000000000000FFFF0400C7
S113211000000000FF00FF0800000000FF0000FFB7
S113212010000000FF000000FF200000FF0000007E
S113213000004000000000000000008000000000DB
S11321400000000001000000000000000002000088
S113215000000000FFFF040000000000FF00FF0873
S113216000000000FF0000FF1000FF00FF0000005F
S113217000200000FF0000000000400000000000FC
S113218000000080000000000000000001000000CA
S1132190000000000002000000000000FFFF040037
S11321A000000000FF00FF08FF000000FF00000027
S11321B01000FF00FF00000000200000FF000000EE
S11321C0000040000000000000000080000000004B
S11321D00000000001000000000000FF00020000F9
S11321E0000000FF00FF0400000000FF00000008E2
S11321F0000000FF0000000010FF00FF00000000CE
S1132200002000FF0000000000004000000000006B
S11322100000008000000000000000000100000039
S11322200000FF00000200000000FF00FF000400A7
S11322300000FF000000FF080000FF000000000095
S11322401000FF00000000000020FF00000000005C
S113225000004000000000000000008000000000BA
S1132260000000000100000000FF00000002000068
S113227000FF00FF0000040000FF000000FF000852
S113228000FF0000000000FF10FF0000000000003D
S113229000200000000000000000400000000000DA
S11322A000000080000000000000000001000000A9
S11322B0FF00000000020000FF00FF000000040017
S11322C0FF000000FF000008FF0000000000FF0006
S11322D01000000000000000FF20000000000000CB
S11322E0000040000000000000000080000000002A
S11322F000000000010000FF00000000000200FFD9
S113230000FF0000000004FF000000FF00000008C0
S11323100000000000FF000010000000000000FFAB
S1132320002000000000000000FF4000000000004A
S11323300000008000000000000000000100FF0019
S1132340000000000002FF00FF0000000000040085
S11323500000FF000000000800000000FF00000073
S1132360100000000000FF00FF200000000000003B
S1132370FF0040000000000000000080000000009A
S11323800000000001000000000000000002000046
S113239000000000000004000000181800000008FD
S11323A000000018180000001000000000000000E9
S11323B000200000000000000000400000000000B9
S11323C00000008000000000000000000100000088
S11323D000000000000200000018180000000400C3
S11323E000183C3C180000080000183C3C18000091
S11323F01000000018180000002000000000000079
S11324000000400000000000000000800000000008
S11324100000000001000000181800000002000085
S1132420183C3C1800000400183C7E7E3C18000850
S113243000183C7E7E3C1800100000183C3C18003C
S113244000200000001818000000400000000000F8
S113245000000080000000181800000001000018AF
S11324603C3C1800000200183C7E7E3C1800041816
S11324703C7EFFFF7E3C1808183C7EFFFF7E3C1824
S11324801000183C7E7E3C1800200000183C3C18CC
S11324900000400000001818000000800000001830
S11324A018000000010000183C3C1800000200184D
S11324B03C7E7E3C180004183C7EFFFF7E3C1808DE
S11324C0183C7EFFFF7E3C181000183C7E7E3C18B2
S11324D000200000183C3C180000400000001818C0
S11324E0000000800000001818000000010000181F
S11324F03C3C1800000200183C7E7E3C1800041886
S11325003C7EFFFF7E3C1808183C7EFFFF7E3C1893
S11325101000183C7E7E3C1800200000183C3C183B
S113252000004000000018180000008000000000B7
S11325300000000001000000181800000002000064
S1132540183C3C1800000400183C7E7E3C1800082F
S113255000183C7E7E3C1800100000183C3C18001B
S113256000200000001818000000400000000000D7
S113257000000080000000000000000001000000D6
S11325800000000000020000001818000000040011
S113259000183C3C180000080000183C3C180000DF
S11325A010000000181800000020000000000000C7
S11325B00000400000000000000000800000000057
S11325C00000000001000000000000000002000004
S11325D000000000000004000000181800000008BB
S11325E000000018180000001000000000000000A7
S11325F00020000000000000000040000000000077
S11326000000008000000000000000000100000045
S113261000000000000200000000000000000400B0
S1132620000018180000000800000018180000003E
S11326301000000000000000002000000000000066
S113264000004000000000000000008011241FBEB4
S1132650CFE5D8E0DEBFCDBF10E0A0E6B0E0E0EE0D
S1132660FAE202C005900D92AA36B107D9F720E02C
S1132670AAE6B0E001C01D92AF36B207E1F70E94AE
S1132680A9140C946E150C940000809168008F5F5F
S113269080936800893068F180916C008F5F883086
S11326A008F446C010926C0080916B008F5F8431F7
S11326B018F480936B003EC010926B0080916D0003
S11326C08F5F8A3019F080936D0034C010926D00D2
S11326D080916A008F5F833019F080936A002AC06A
S11326E010926A0080916E008F5F837080936E00F9
S11326F021C081E00E94B71480916C0090E0309179
S11327006D0020916800FC01EE0FFF1FEE0FFF1F0C
S1132710EE0FFF1FE80FF91F88E4389FE00DF11D4D
S11327201124E458FC4DE20FF11D84918FB90895F2
S113273080936C008FEF8093680008958091680007
S11327408F5F80936800893068F180916C008F5F9F
S1132750883008F446C010926C0080916B008F5F43
S1132760833118F480936B003EC010926B0080910B
S11327706D008F5F833119F080936D0034C0109227
S11327806D0080916A008F5F813019F080936A0038
S11327902AC010926A0080916E008F5F83708093CC
S11327A06E0021C081E00E94B71480916C0090E01B
S11327B030916D0020916800FC01EE0FFF1FEE0FB9
S11327C0FF1FEE0FFF1FE80FF91F88E4389FE00D8D
S11327D0F11D1124EC5DF14EE20FF11D84918FB9CE
S11327E0089580936C008FEF809368000895809122
S11327F068008F5F80936800893068F180916C0075
S11328008F5F883008F446C010926C0080916B0092
S11328108F5F893118F480936B003EC010926B0077
S113282080916D008F5F873319F080936D0034C001
S113283010926D0080916A008F5F813019F080934F
S11328406A002AC010926A0080916E008F5F8370C4
S113285080936E0021C081E00E94B71480916C00C7
S113286090E030916D0020916800FC01EE0FFF1F95
S1132870EE0FFF1FEE0FFF1FE80FF91F88E4389FCC
S1132880E00DF11D1124E455F14FE20FF11D849187
S11328908FB9089580936C008FEF8093680008953A
S11328A0809168008F5F80936800893068F180911F
S11328B06C008F5F883008F446C010926C008091E1
S11328C06B008F5F823118F480936B003EC01092CE
S11328D06B0080916D008F5F833319F080936D00DE
S11328E034C010926D0080916A008F5F813019F0BE
S11328F080936A002AC010926A0080916E008F5FF4
S1132900837080936E0021C081E00E94B71480918F
S11329106C0090E030916D0020916800FC01EE0F96
S1132920FF1FEE0FFF1FEE0FFF1FE80FF91F88E4D4
S1132930389FE00DF11D1124EC5AFF4FE20FF11DF9
S113294084918FB9089580936C008FEF8093680011
S113295008958FEF8ABB81E08BBB0E94F9140E941B
S1132960BE148FE590E00E942F157894FFCF81115B
S113297002C0C49A01C0C4980000089587B3806B54
S113298087BB80E00E94B71480ED8DB98EB18FB102
S113299008951F920F920FB60F9211242F933F9315
S11329A04F935F936F937F938F939F93AF93BF9353
S11329B0EF93FF9380E00E94B714E0916E00F0E083
S11329C0EE0FFF1FE05AFF4F0190F081E02D0995B3
S11329D0FF91EF91BF91AF919F918F917F916F91F3
S11329E05F914F913F912F910F900FBE0F901F90C9
S11329F018958DE08EBD86E090E09BBD8ABD80E198
S1132A0089BF08951F920F920FB60F9211242F932E
S1132A103F934F935F936F937F938F939F93AF9362
S1132A20BF93EF93FF93E0916E00F0E0EE0FFF1F72
S1132A30E05AFF4F0190F081E02D0995FF91EF914D
S1132A40BF91AF919F918F917F916F915F914F91C2
S1132A503F912F910F900FBE0F901F9018952FEF5D
S1132A6024BBA89A90BD89B988E18AB98EE880BD53
S1132A7080EC8BB98AB1806C8AB995B381E08927DF
S1132A8085BB08951F920F920FB60F9211248F9356
S1132A909F93A89A8CB1813631F4A89B04C095B356
S1132AA081E0892785BB9F918F910F900FBE0F9076
S1132AB01F9018951F920F920FB60F9211240F902A
S1132AC00FBE0F901F9018951F920F920FB60F9282
S1132AD011240F900FBE0F901F901895F894FFCFFC
S10D2AE045139E13F7135014FF0072
S9030000FC
